:020000040000FA
:100000000A128A11FC2F00308A000408840A820731
:1000100000340D34203449346E3473346534723412
:100020007434613472342034633461347234613432
:10003000633474346534723420347034613472340F
:100040006134203464346534733470346C34653412
:10005000673461347234203465346E342034503463
:100060004F345234543441343A3420340D34003453
:100070000D34203449346E3473346534723474343E
:1000800061347234203463346134723461346334E3
:1000900074346534723420347034613472346134B1
:1000A000203464346534733470346C3465346734AC
:1000B00061347234203465346E34203450344F341B
:1000C0005234543442343A3420340D340034203421
:1000D00031342E34203444346534733470346C3409
:1000E0006534673461347234203463346134643489
:1000F00065346E34613420346434653420346334C0
:100100006134723461346334743465347234653408
:10011000733420340D3400340D34203445346C34C1
:1001200069346A346134203475346E346134203477
:100130006F347034633469346F346E343A3420343D
:100140000D340034203432342E34203443346134BE
:100150006D346234693461347234203450344F3435
:1001600052345434413420340D3400342034333488
:100170002E342034433461346D3462346934613454
:100180007234203450344F34523454344234203496
:100190000D3400340D34203454344134203454347C
:1001A0004F3444344F3420344234493445344E348F
:0601B00020340D34003480
:100E0400F000831203130C1E082F092F032F700800
:100E1400990008000A128A1139270A128A110A1243
:100E24008A1166270A128A11112F0A128A110028C0
:100E3400F4007030F1007108F200262F73080A12D2
:100E44008A1102270A128A110130F407FF3074074D
:100E540084000A128A1103200A128A11F10071080F
:100E6400F3007308031D372F382F202F0800831633
:100E740003178801890183160313850186018312F0
:100E8400031385018601831603130F178F160F169C
:100E94000F148B170B178C160C16181218158316B3
:100EA40003178715D0308316031399009A01831210
:100EB400031398171813181683160313981683121E
:100EC40003138C120C1208000330F7008A30F6006A
:100ED4005530F500F50B6C2FF60B6C2FF70B6C2FC0
:100EE400732F84300A128A111A270A128A110330C6
:100EF400F7008A30F6005530F500F50B7F2FF60B1E
:100F04007F2FF70B7F2F862F5F300A128A111A2743
:100F14000A128A110330F7008A30F6005530F500C2
:100F2400F50B922FF60B922FF70B922F992F9A30E5
:100F34000A128A111A270A128A110330F7008A301A
:100F4400F6005530F500F50BA52FF60BA52FF70B82
:100F5400A52FAC2FAE300A128A111A270A128A1151
:100F6400831203138C1EB72FB82FB22F31301A06F9
:100F7400031DBD2FBE2FD12F0630F7001330F6000E
:100F8400AD30F500F50BC42FF60BC42FF70BC42FAF
:100F9400CB2FC2300A128A111A270A128A11323050
:100FA400831203131A06031DD82FD92FE72F0130FC
:100FB4000A128A111A270A128A11831203138C1E29
:100FC400E42FE52FDF2F1A08850033301A06031D9E
:100FD400EC2FED2FFB2F30300A128A111A270A1238
:100FE4008A11831203138C1EF82FF92FF32F1A087A
:0C0FF4008600080083010A128A110C2FED
:04400E00D420FF3F7C
:00000001FF
